:100000000C94FB000C941A010C941A010C941A0124
:100010000C941A010C941A010C941A010C941A01F4
:100020000C941A010C941A010C941A010C941A01E4
:100030000C941A010C941A010C941A010C941A01D4
:100040000C941A010C941A010C941A010C941A01C4
:100050000C941A010C941A010C941A010C941A01B4
:100060000C941A010C941A010C941A010C941A01A4
:100070000C941A010C941A010C941A010C941A0194
:100080000C941A010C941A010C941A010C941A0184
:100090000C941A010C941A010C941A010C941A0174
:1000A0000C941A010C941A010C941A010C941A0164
:1000B0000C941A010C941A010C941A010C941A0154
:1000C0000C941A010C941A010C941A010C941A0144
:1000D0000C941A010C941A010C941A010C941A0134
:1000E0000C941A010C941A010C941A010C941A0124
:1000F0000C941A016E616E00696E660000407A1001
:10010000F35A00A0724E18090010A5D4E80000E8C8
:100110007648170000E40B54020000CA9A3B000026
:1001200000E1F505000080969800000040420F00B5
:100130000000A08601000000102700000000E80376
:10014000000000006400000000000A000000000041
:100150000100000000002C76D888DC674F0823DF00
:10016000C1DFAE59E1B1B796E5E3E453C63AE651D3
:10017000997696E8E6C28426EB898C9B62ED407CFA
:100180006FFCEFBC9C9F40F2BAA56FA5F490055A96
:100190002AF75C936B6CF9676DC11BFCE0E40D47BB
:1001A000FEF520E6B500D0ED902E030094357705DE
:1001B0000080841E080000204E0A000000C80C3396
:1001C0003333330F986E12831141EF8D2114893B25
:1001D000E65516CFFEE6DB18D1844B381BF77C1DA5
:1001E000901DA4BBE424203284725E228100C9F1F8
:1001F00024ECA1E53D2711241FBECFEFCDBFDFE7E3
:10020000DEBF10E4A0E0B0E4E4EDF4E100E00BBFF9
:1002100002C007900D92A035B107D9F720E4A0E500
:10022000B0E401C01D92AE3AB207E1F70E949E0110
:100230000C94680A0C940000E0EEF5E084818C7F59
:100240008483E0E0F4E08081806D80838481806835
:100250008483E0E4F9E08081806280838181816031
:100260008183808181608083089580E090E012C066
:10027000FC01EB59FF4B20E22083FC01E658FF4BC9
:100280002083FC01E157FF4B2083FC01E05BFF4B27
:1002900020830196843191055CF30895809344098D
:1002A000809143098823E4F70895CF93DF93E0E03A
:1002B000F4E084818F778483C0E0D0E034C0C4311F
:1002C000D1053CF4FE01EB59FF4B80810E944E01A9
:1002D00029C0C832D10564F4CE0164E170E00E9407
:1002E0008F08FC01E658FF4B80810E944E011AC026
:1002F000CC33D10564F4CE0164E170E00E948F0834
:10030000FC01E157FF4B80810E944E010BC0CE01E2
:1003100064E170E00E948F08FC01E05BFF4B80818C
:100320000E944E012196C035D1054CF2E0E0F4E088
:10033000848180688483DF91CF9108950E940F02A9
:100340000E941C0161E086E89FE30E94560261E082
:1003500081EB91E20E945602C0E0D4E08C818F775D
:100360008C838CE70E944E018DE20E944E018C81AD
:1003700080688C830E94350184E1E0E0F0E4A5E62A
:10038000B0E401900D928A95E1F70E94E802892B72
:10039000E1F30E9475028091AD408F938091AC4053
:1003A0008F9384E190E49F938F938AE790E49F93E7
:1003B0008F930E94E1098091A7408F938091A6407E
:1003C0008F938091A5408F938091A4408F9386E274
:1003D00090E49F938F938FE890E49F938F930E9474
:1003E000E1098091AB408F938091AA408F938091D7
:1003F000A9408F938091A8408F9389E390E49F93C5
:100400008F9380E590E49F938F930E94E1090E946F
:1004100055018DB79EB746968DBF9EBFB6CFE0E023
:10042000F9E08FE0868383818160838385818160A9
:1004300085832FE381ED9CE0215080409040E1F7DF
:1004400000C000000895E0E0F9E0808592E0948328
:10045000909105099923E4F70895CF93DF930E94C3
:100460002302C82FD0E0DC2FCC270E9423029E015C
:10047000282BC901DF91CF9108959093080990919D
:10048000050996FFFCCF9091050994FF04C083E015
:10049000809304090895E0E0F9E0948192609483E8
:1004A00080878091050986FFFCCF0895CF939C013A
:1004B000C62F84EC809307099091050996FFFCCF25
:1004C0008091050984FF07C083E0809304098FEFC2
:1004D0009FEF0E94680AC9010E943D02C13019F4D1
:1004E00083E080930409CF9108950F931F93CF93D6
:1004F000DF9363E085E09CEE0E9456028BED95E071
:100500000197F1F700C0000085EC80930709809106
:1005100005098823E4F78091050984FF07C083E07B
:10052000809304098FEF9FEF0E94680A0E942D02BA
:100530008093AC409093AD400E9423020E942D0214
:100540008C010E9423020E942D02EC01E0E0F9E000
:10055000808587E08483B80180E090E00E94F40306
:1005600020E03FEF4FE757E40E94820320E030E0B5
:100570004FE253E40E94820420E030E044E352E47E
:100580000E9415036093A4407093A5408093A640F9
:100590009093A740BE0180E090E00E94F40320E029
:1005A0003FEF4FE757E40E94820320E030E048EC41
:1005B00052E40E9482046093A8407093A940809303
:1005C000AA409093AB40DF91CF911F910F91089576
:1005D00063E088EB94EE0E9456028BED95E0019764
:1005E000F1F700C0000085EC8093070980910509B0
:1005F0008823E4F78091050984FF07C083E0809396
:1006000004098FEF9FEF0E94680A0E942D02E0E02C
:10061000F9E0208527E02483880F991F8295929521
:10062000907F9827807F982708955058BB27AA2746
:100630000E942D030C9448040E943A0438F00E9452
:10064000410420F039F49F3F19F426F40C94370448
:100650000EF4E095E7FB0C943104E92F0E94590455
:1006600058F3BA17620773078407950720F079F4E7
:10067000A6F50C947B040EF4E0950B2EBA2FA02D5A
:100680000B01B90190010C01CA01A0011124FF273F
:10069000591B99F0593F50F4503E68F11A16F0403A
:1006A000A22F232F342F4427585FF3CF4695379539
:1006B0002795A795F0405395C9F77EF41F16BA0BFE
:1006C000620B730B840BBAF09150A1F0FF0FBB1FAC
:1006D000661F771F881FC2F70EC0BA0F621F731FF5
:1006E000841F48F4879577956795B795F7959E3F52
:1006F00008F0B0CF9395880F08F09927EE0F9795E3
:10070000879508950E9496030C9448040E94410422
:1007100058F00E943A0440F029F45F3F29F00C940D
:10072000310451110C947C040C9437040E94590438
:1007300068F39923B1F3552391F3951B550BBB2710
:10074000AA2762177307840738F09F5F5F4F220F55
:10075000331F441FAA1FA9F335D00E2E3AF0E0E84C
:1007600032D091505040E695001CCAF72BD0FE2F96
:1007700029D0660F771F881FBB1F2617370748072A
:10078000AB07B0E809F0BB0B802DBF01FF279358E2
:100790005F4F3AF09E3F510578F00C9431040C9471
:1007A0007C045F3FE4F3983ED4F386957795679594
:1007B000B795F7959F5FC9F7880F911D9695879517
:1007C00097F90895E1E0660F771F881FBB1F621736
:1007D00073078407BA0720F0621B730B840BBA0BF4
:1007E000EE1F88F7E0950895E89409C097FB3EF462
:1007F00090958095709561957F4F8F4F9F4F99236E
:10080000A9F0F92F96E9BB279395F69587957795EB
:100810006795B795F111F8CFFAF4BB0F11F460FFAB
:100820001BC06F5F7F4F8F4F9F4F16C0882311F003
:1008300096E911C0772321F09EE8872F762F05C017
:10084000662371F096E8862F70E060E02AF09A95B2
:10085000660F771F881FDAF7880F9695879597F9A7
:10086000089597F99F6780E870E060E008959FEF32
:1008700080EC089500240A94161617061806090637
:10088000089500240A941216130614060506089506
:10089000092E0394000C11F4882352F0BB0F40F48E
:1008A000BF2B11F460FF04C06F5F7F4F8F4F9F4FCE
:1008B000089557FD9058440F551F59F05F3F71F050
:1008C0004795880F97FB991F61F09F3F79F08795B7
:1008D0000895121613061406551FF2CF4695F1DF40
:1008E00008C0161617061806991FF1CF86957105D0
:1008F000610508940895E894BB2766277727CB0104
:1009000097F908950E9495040C9448040E943A04B3
:1009100038F00E94410420F0952311F00C9431042A
:100920000C94370411240C947C040E94590470F335
:10093000959FC1F3950F50E0551F629FF001729F84
:10094000BB27F00DB11D639FAA27F00DB11DAA1F93
:10095000649F6627B00DA11D661F829F2227B00DE0
:10096000A11D621F739FB00DA11D621F839FA00D6B
:10097000611D221F749F3327A00D611D231F849FBB
:10098000600D211D822F762F6A2F11249F57504012
:100990009AF0F1F088234AF0EE0FFF1FBB1F661F8D
:1009A000771F881F91505040A9F79E3F510580F056
:1009B0000C9431040C947C045F3FE4F3983ED4F330
:1009C000869577956795B795F795E7959F5FC1F7FA
:1009D000FE2B880F911D9695879597F908952F9274
:1009E0003F924F925F926F927F928F929F92AF92BF
:1009F000BF92CF92DF92EF92FF920F931F93CF930C
:100A0000DF93CDB7DEB76097CDBFDEBF7C011B01A2
:100A10006A01FC0116821782838181FF44C39E0113
:100A20002F5F3F4F3901F7019381F10193FD8591CC
:100A300093FF81911F01882309F431C3853239F472
:100A400093FD859193FF81911F01853239F4B701A0
:100A500090E00E94A50956016501E5CF10E0512CF8
:100A6000912CFFE1F915D8F08B3279F038F480320F
:100A700079F08332A1F4F92DF0612EC08D3261F04E
:100A8000803369F4292D21602DC0392D3260932ED9
:100A9000892D8460982E2AC0E92DE86015C097FC46
:100AA0002DC020ED280F2A3088F496FE06C03AE0CB
:100AB000139F200D1124122F19C08AE0589E200D7B
:100AC0001124522EE92DE0629E2E10C08E3231F498
:100AD00096FCE5C2F92DF0649F2E08C08C3621F4F7
:100AE000292D2068922E02C0883641F4F10193FD31
:100AF000859193FF81911F018111B3CF9BEB980FDB
:100B0000933020F4992D9061805E07C09BE9980F87
:100B1000933008F066C1992D9F7E96FF16E09F7373
:100B2000992E853619F49064992E08C0863621F4E2
:100B3000392F3068932E02C01111115097FE07C053
:100B40001C3350F444244394410E27E00BC018306A
:100B500038F027E017E005C027E09CE3492E02C0EB
:100B6000212F412C560184E0A80EB11CF6016081B2
:100B7000718182819381042DA3010E94B7086C01C9
:100B8000F981FC87F0FF02C0F3FF06C091FC06C0AC
:100B900092FE06C000E205C00DE203C00BE201C0F8
:100BA00000E08C858C7019F001115AC29BC297FE2F
:100BB00010C04C0CFC85F4FF04C08A81813309F419
:100BC0004A94141474F528E0241578F588E0482E2A
:100BD0002CC096FC2AC0812F90E08C159D059CF0BE
:100BE0003CEFC3163FEFD30674F0892D8068982E32
:100BF0000AC0E2E0F0E0EC0FFD1FE10FF11D808183
:100C0000803319F411501111F4CF97FE0EC0442413
:100C10004394410E812F90E0C816D9062CF41C197C
:100C200004C04424439401C010E097FE06C01C1485
:100C30001D0434F4C601019605C085E090E002C0B1
:100C400081E090E001110196112331F0212F30E075
:100C50002F5F3F4F820F931F252D30E082179307A0
:100C600014F4581A01C0512C892D897049F455206B
:100C700039F0B70180E290E00E94A5095A94F7CFBD
:100C8000002329F0B701802F90E00E94A50993FC72
:100C900009C0552039F0B70180E390E00E94A50912
:100CA0005A94F7CF97FE4CC04601D7FE02C0812C64
:100CB000912CC60188199909F301E80FF91FED87F6
:100CC000FE879601241931092F87388B012F10E0F8
:100CD0001195019511093FEF8316930629F4B70189
:100CE0008EE290E00E94A509C814D9044CF08F85CB
:100CF00098898815990524F4ED85FE85818101C0C8
:100D000080E3F1E08F1A91082D853E852F5F3F4FDC
:100D10002D873E87801691062CF0B70190E00E9447
:100D2000A509D9CFC814D90441F49A81963320F487
:100D3000953319F43C8534FF81E3B70190E04EC050
:100D40008A81813319F09C859F7E9C87B70190E052
:100D50000E94A509111105C094FC18C085E690E019
:100D600017C0B7018EE290E00E94A5091E5F82E0E5
:100D700001E0080FF301E80FF11D8081B70190E059
:100D80000E94A509802F0113F3CFE6CF85E490E000
:100D9000B7010E94A509D7FC06C0C114D10441F4D3
:100DA000EC85E4FF05C0D194C194D1088DE201C067
:100DB0008BE2B70190E00E94A50980E32AE0C21609
:100DC000D1042CF08F5FFAE0CF1AD108F7CFB7012A
:100DD00090E00E94A509B701C601C0960E94A5092E
:100DE00054C1833631F0833779F0833509F056C02A
:100DF00020C0560132E0A30EB11CF6018081898328
:100E000001E010E0630112C05601F2E0AF0EB11C28
:100E1000F601C080D18096FE03C0612F70E002C051
:100E20006FEF7FEFC6010E949A098C01F92DFF77C1
:100E300014C0560122E0A20EB11CF601C080D18080
:100E400096FE03C0612F70E002C06FEF7FEFC60116
:100E50000E948F098C01F92DF0689F2EF3FD1AC0B6
:100E6000852D90E008171907A8F4B70180E290E0FB
:100E70000E94A5095A94F4CFF60197FC859197FE3C
:100E800081916F01B70190E00E94A50951105A9419
:100E9000015011090115110579F7F7C0843611F0D9
:100EA000893661F5560197FE09C024E0A20EB11CF7
:100EB000F60160817181828193810AC0F2E0AF0EF8
:100EC000B11CF60160817181072E000C880B990B13
:100ED000F92DFF769F2E97FF09C09095809570950C
:100EE00061957F4F8F4F9F4FF0689F2E2AE030E033
:100EF000A3010E940A0AC82EC6183FC0092D8537D3
:100F000021F40F7E2AE030E01DC0097F8F3691F07A
:100F100018F4883559F0C3C0803719F0883711F0BC
:100F2000BEC0006104FF09C0046007C094FE08C091
:100F3000066006C028E030E005C020E130E002C0D5
:100F400020E132E0560107FF09C084E0A80EB11C81
:100F5000F601608171818281938108C0F2E0AF0E59
:100F6000B11CF6016081718180E090E0A3010E94D4
:100F70000A0AC82EC6180F77902E96FE0BC0092DB0
:100F80000E7FC11650F494FE0AC092FC08C0092DD1
:100F90000E7E05C0DC2C092D03C0DC2C01C0D12E37
:100FA00004FF0DC0FE01EC0DF11D8081803311F4B2
:100FB000097E09C002FF06C0D394D39404C0802FD9
:100FC000867809F0D39403FD11C000FF06C01C2DE4
:100FD000D51480F4150D1D190DC0D51458F4B701A2
:100FE00080E290E00E94A509D394F7CFD51410F4C5
:100FF0005D1801C0512C04FF10C0B70180E390E0E0
:101000000E94A50902FF17C001FD03C088E790E018
:1010100002C088E590E0B7010CC0802F867859F0B7
:1010200001FF02C08BE201C080E207FD8DE2B70143
:1010300090E00E94A509C11638F4B70180E390E062
:101040000E94A5091150F7CFCA94F301EC0DF11DD0
:101050008081B70190E00E94A509C110F5CF15C0AD
:10106000F4E0F51560F584E0581A93FE1FC00111F5
:1010700027C02C8523FF2AC004EF10E0392D3071E2
:10108000932EF8018491811124C0552009F4E4CCF9
:10109000B70180E290E00E94A5095A94F6CFF701CB
:1010A0008681978126C08FEF9FEF23C0B70180E232
:1010B00090E00E94A5095A945110F8CFD8CF512C36
:1010C000B701802F90E00E94A509D3CF08EF10E070
:1010D000D5CF91108052B70190E00E94A5090F5F13
:1010E0001F4FCFCF23E0251510F483E0BDCF512C47
:1010F000C0CF6096CDBFDEBFDF91CF911F910F9122
:10110000FF90EF90DF90CF90BF90AF909F908F9027
:101110007F906F905F904F903F902F90089597FB36
:10112000072E16F4009407D077FD09D00E94A3087B
:1011300007FC05D03EF4909581959F4F08957095DA
:1011400061957F4F0895AA1BBB1B51E107C0AA1FE1
:10115000BB1FA617B70710F0A61BB70B881F991F58
:101160005A95A9F780959095BC01CD010895283036
:1011700008F027E03327DA01990F311D87FD9160D0
:1011800000966105710539F432602E5F3D9330E3BE
:101190002A95E1F708959F3F30F080387105610589
:1011A00009F03C5F3C5F3D93913008F08068911DF1
:1011B000DF93CF931F930F93FF92EF92192F987F96
:1011C0009695E92F96959695E90FFF27EA5AFE4FD7
:1011D00099273327EE24FF24A701E70105900894FF
:1011E000079428F4360FE71EF81E491F511D660F9D
:1011F000771F881F991F0694A1F70590079428F47C
:10120000E70EF81E491F561FC11D770F881F991F33
:10121000661F0694A1F70590079428F4F80E491F5D
:10122000561FC71FD11D880F991F661F771F069471
:10123000A1F70590079420F4490F561FC71FD81F28
:10124000990F661F771F881F0694A9F78491109540
:10125000177041F0D695C79557954795F794E79441
:101260001A95C1F7ECEFF0E068941590159135915F
:101270006591959105907FE27395E118F10A430B12
:10128000560BC90BD009C0F7E10CF11E431F561FC6
:10129000C91FD01D7EF4703311F48A95E6CFE8940F
:1012A000015030F0080F0AF40027021708F4202F2D
:1012B0002395022F7A3328F079E37D932A95E9F775
:1012C00010C07D932A9589F6069497956795379572
:1012D00017951794E118F10A430B560BC90BD00967
:1012E00098F023957E9173957A3308F070E37C93A0
:1012F0002013B8F77E9170617D9330F0839571E390
:101300007D9370E32A95E1F71124EF90FF900F9100
:101310001F91CF91DF91992787FD90950895FC014A
:101320000590615070400110D8F7809590958E0F10
:101330009F1F0895FC016150704001900110D8F783
:10134000809590958E0F9F1F08950F931F93CF93B5
:10135000DF93FB01238121FD03C08FEF9FEF2CC0A2
:1013600022FF16C0468157812481358142175307D9
:1013700044F4A081B1819D012F5F3F4F20833183D1
:101380008C93268137812F5F3F4F2683378314C08C
:101390008B01EC01FB010084F185E02D0995892B7F
:1013A000E1F6D80116968D919C91179701961696A5
:1013B0008D939C931797CE01DF91CF911F910F9141
:1013C00008950F931F93CF93DF93CDB7DEB72E977A
:1013D000CDBFDEBF0D891E8986E08C8309831A8309
:1013E0008FEF9FE78D839E83AE01475E5F4F6F89CE
:1013F000788DCE0101960E94EF04EF81F885E00F11
:10140000F11F10822E96CDBFDEBFDF91CF911F91CD
:101410000F910895FA01AA27283051F1203181F166
:10142000E8946F936E7F6E5F7F4F8F4F9F4FAF4FEC
:10143000B1E03ED0B4E03CD0670F781F891F9A1FFF
:10144000A11D680F791F8A1F911DA11D6A0F711DB3
:10145000811D911DA11D20D009F468943F912AE0BF
:10146000269F11243019305D3193DEF6CF010895A7
:10147000462F4770405D4193B3E00FD0C9F7F6CFD8
:10148000462F4F70405D4A3318F0495D31FD4052A0
:10149000419302D0A9F7EACFB4E0A6959795879536
:1014A00077956795BA95C9F7009761057105089515
:1014B0009B01AC010A2E06945795479537952795C1
:1014C000BA95C9F7620F731F841F951FA01D089559
:0414D000F894FFCFBE
:1014D400416972205175616C697479204461746149
:1014E4003A202000434F32204C6576656C733A20D5
:1014F400257570706D0054656D70657261747572D8
:10150400653A20252E3166430052656C2E204875BD
:101514006D69646974793A20252E306625250000AA
:00000001FF
